{
  "_format": "hh-sol-artifact-1",
  "contractName": "Raffle",
  "sourceName": "contracts/Raffle.sol",
  "abi": [
    {
      "inputs": [
        {
          "internalType": "address",
          "name": "vrfCoordinatorV2",
          "type": "address"
        },
        {
          "internalType": "uint256",
          "name": "enterenceFee",
          "type": "uint256"
        },
        {
          "internalType": "bytes32",
          "name": "gaslane",
          "type": "bytes32"
        },
        {
          "internalType": "uint64",
          "name": "subscriptionId",
          "type": "uint64"
        },
        {
          "internalType": "uint32",
          "name": "callbackGasLimit",
          "type": "uint32"
        },
        {
          "internalType": "uint256",
          "name": "interval",
          "type": "uint256"
        }
      ],
      "stateMutability": "nonpayable",
      "type": "constructor"
    },
    {
      "inputs": [
        {
          "internalType": "address",
          "name": "have",
          "type": "address"
        },
        {
          "internalType": "address",
          "name": "want",
          "type": "address"
        }
      ],
      "name": "OnlyCoordinatorCanFulfill",
      "type": "error"
    },
    {
      "inputs": [],
      "name": "Raffle_TransferFailed",
      "type": "error"
    },
    {
      "inputs": [],
      "name": "Raffle__NotEnoughtETHEntered",
      "type": "error"
    },
    {
      "inputs": [],
      "name": "Raffle__NotOpen",
      "type": "error"
    },
    {
      "inputs": [
        {
          "internalType": "uint256",
          "name": "currentBalance",
          "type": "uint256"
        },
        {
          "internalType": "uint256",
          "name": "numPlayers",
          "type": "uint256"
        },
        {
          "internalType": "uint256",
          "name": "raffleState",
          "type": "uint256"
        }
      ],
      "name": "Raffle__UpkeepnotNeeded",
      "type": "error"
    },
    {
      "anonymous": false,
      "inputs": [
        {
          "indexed": true,
          "internalType": "address",
          "name": "player",
          "type": "address"
        }
      ],
      "name": "RaffleEnter",
      "type": "event"
    },
    {
      "anonymous": false,
      "inputs": [
        {
          "indexed": true,
          "internalType": "uint256",
          "name": "requestId",
          "type": "uint256"
        }
      ],
      "name": "RequestedRaffleWinner",
      "type": "event"
    },
    {
      "anonymous": false,
      "inputs": [
        {
          "indexed": true,
          "internalType": "address",
          "name": "winner",
          "type": "address"
        }
      ],
      "name": "WinnerPicked",
      "type": "event"
    },
    {
      "inputs": [
        {
          "internalType": "bytes",
          "name": "",
          "type": "bytes"
        }
      ],
      "name": "checkUpkeep",
      "outputs": [
        {
          "internalType": "bool",
          "name": "upkeepNeeded",
          "type": "bool"
        },
        {
          "internalType": "bytes",
          "name": "",
          "type": "bytes"
        }
      ],
      "stateMutability": "nonpayable",
      "type": "function"
    },
    {
      "inputs": [],
      "name": "enterRaffle",
      "outputs": [],
      "stateMutability": "payable",
      "type": "function"
    },
    {
      "inputs": [],
      "name": "getEnterenceFee",
      "outputs": [
        {
          "internalType": "uint256",
          "name": "",
          "type": "uint256"
        }
      ],
      "stateMutability": "view",
      "type": "function"
    },
    {
      "inputs": [],
      "name": "getLatestTimestamp",
      "outputs": [
        {
          "internalType": "uint256",
          "name": "",
          "type": "uint256"
        }
      ],
      "stateMutability": "view",
      "type": "function"
    },
    {
      "inputs": [],
      "name": "getNumWords",
      "outputs": [
        {
          "internalType": "uint256",
          "name": "",
          "type": "uint256"
        }
      ],
      "stateMutability": "pure",
      "type": "function"
    },
    {
      "inputs": [
        {
          "internalType": "uint256",
          "name": "index",
          "type": "uint256"
        }
      ],
      "name": "getPlayer",
      "outputs": [
        {
          "internalType": "address",
          "name": "",
          "type": "address"
        }
      ],
      "stateMutability": "view",
      "type": "function"
    },
    {
      "inputs": [],
      "name": "getRafflestate",
      "outputs": [
        {
          "internalType": "enum Raffle.RaffleState",
          "name": "",
          "type": "uint8"
        }
      ],
      "stateMutability": "view",
      "type": "function"
    },
    {
      "inputs": [],
      "name": "getRecentWinner",
      "outputs": [
        {
          "internalType": "address",
          "name": "",
          "type": "address"
        }
      ],
      "stateMutability": "view",
      "type": "function"
    },
    {
      "inputs": [],
      "name": "getRequestedConfirmations",
      "outputs": [
        {
          "internalType": "uint256",
          "name": "",
          "type": "uint256"
        }
      ],
      "stateMutability": "pure",
      "type": "function"
    },
    {
      "inputs": [],
      "name": "getnumbersOfPlayers",
      "outputs": [
        {
          "internalType": "uint256",
          "name": "",
          "type": "uint256"
        }
      ],
      "stateMutability": "view",
      "type": "function"
    },
    {
      "inputs": [
        {
          "internalType": "bytes",
          "name": "",
          "type": "bytes"
        }
      ],
      "name": "performUpkeep",
      "outputs": [],
      "stateMutability": "nonpayable",
      "type": "function"
    },
    {
      "inputs": [
        {
          "internalType": "uint256",
          "name": "requestId",
          "type": "uint256"
        },
        {
          "internalType": "uint256[]",
          "name": "randomWords",
          "type": "uint256[]"
        }
      ],
      "name": "rawFulfillRandomWords",
      "outputs": [],
      "stateMutability": "nonpayable",
      "type": "function"
    }
  ],
  "bytecode": "0x6101406040523480156200001257600080fd5b506040516200177b3803806200177b833981810160405281019062000038919062000292565b858073ffffffffffffffffffffffffffffffffffffffff1660808173ffffffffffffffffffffffffffffffffffffffff1681525050508460a081815250508573ffffffffffffffffffffffffffffffffffffffff166101208173ffffffffffffffffffffffffffffffffffffffff16815250508360c081815250508267ffffffffffffffff1660e08167ffffffffffffffff16815250508163ffffffff166101008163ffffffff16815250506000600160146101000a81548160ff021916908360018111156200010d576200010c6200032e565b5b021790555042600281905550806003819055505050505050506200035d565b600080fd5b600073ffffffffffffffffffffffffffffffffffffffff82169050919050565b60006200015e8262000131565b9050919050565b620001708162000151565b81146200017c57600080fd5b50565b600081519050620001908162000165565b92915050565b6000819050919050565b620001ab8162000196565b8114620001b757600080fd5b50565b600081519050620001cb81620001a0565b92915050565b6000819050919050565b620001e681620001d1565b8114620001f257600080fd5b50565b6000815190506200020681620001db565b92915050565b600067ffffffffffffffff82169050919050565b6200022b816200020c565b81146200023757600080fd5b50565b6000815190506200024b8162000220565b92915050565b600063ffffffff82169050919050565b6200026c8162000251565b81146200027857600080fd5b50565b6000815190506200028c8162000261565b92915050565b60008060008060008060c08789031215620002b257620002b16200012c565b5b6000620002c289828a016200017f565b9650506020620002d589828a01620001ba565b9550506040620002e889828a01620001f5565b9450506060620002fb89828a016200023a565b93505060806200030e89828a016200027b565b92505060a06200032189828a01620001ba565b9150509295509295509295565b7f4e487b7100000000000000000000000000000000000000000000000000000000600052602160045260246000fd5b60805160a05160c05160e05161010051610120516113c0620003bb60003960006105a201526000610622015260006105ff015260006105de01526000818161037201526107cd0152600081816102b2015261030601526113c06000f3fe6080604052600436106100a75760003560e01c8063572e00fd11610064578063572e00fd146101895780636e04ff0d146101b4578063b675400d146101f2578063d70a6cd61461021d578063e55ae4e814610248578063f43b52cb14610285576100a7565b80631fe543e3146100ac5780632cfcc539146100d557806345748293146100df5780634585e33b1461010a578063473f1ddc1461013357806353a2c19a1461015e575b600080fd5b3480156100b857600080fd5b506100d360048036038101906100ce9190610ccb565b6102b0565b005b6100dd610370565b005b3480156100eb57600080fd5b506100f46104df565b6040516101019190610d36565b60405180910390f35b34801561011657600080fd5b50610131600480360381019061012c9190610dac565b6104eb565b005b34801561013f57600080fd5b506101486106ea565b6040516101559190610e3a565b60405180910390f35b34801561016a57600080fd5b50610173610714565b6040516101809190610d36565b60405180910390f35b34801561019557600080fd5b5061019e610723565b6040516101ab9190610ecc565b60405180910390f35b3480156101c057600080fd5b506101db60048036038101906101d69190610f9c565b61073a565b6040516101e9929190611088565b60405180910390f35b3480156101fe57600080fd5b506102076107c9565b6040516102149190610d36565b60405180910390f35b34801561022957600080fd5b506102326107f1565b60405161023f9190610d36565b60405180910390f35b34801561025457600080fd5b5061026f600480360381019061026a91906110b8565b6107fe565b60405161027c9190610e3a565b60405180910390f35b34801561029157600080fd5b5061029a610845565b6040516102a79190610d36565b60405180910390f35b7f000000000000000000000000000000000000000000000000000000000000000073ffffffffffffffffffffffffffffffffffffffff163373ffffffffffffffffffffffffffffffffffffffff161461036257337f00000000000000000000000000000000000000000000000000000000000000006040517f1cf993f40000000000000000000000000000000000000000000000000000000081526004016103599291906110e5565b60405180910390fd5b61036c828261084f565b5050565b7f00000000000000000000000000000000000000000000000000000000000000003410156103ca576040517ff9198edd00000000000000000000000000000000000000000000000000000000815260040160405180910390fd5b600060018111156103de576103dd610e55565b5b600160149054906101000a900460ff166001811115610400576103ff610e55565b5b14610437576040517f1425571c00000000000000000000000000000000000000000000000000000000815260040160405180910390fd5b6000339080600181540180825580915050600190039060005260206000200160009091909190916101000a81548173ffffffffffffffffffffffffffffffffffffffff021916908373ffffffffffffffffffffffffffffffffffffffff1602179055503373ffffffffffffffffffffffffffffffffffffffff167f0805e1d667bddb8a95f0f09880cf94f403fb596ce79928d9f29b74203ba284d460405160405180910390a2565b60008080549050905090565b60006105056040518060200160405280600081525061073a565b509050806105745747600080549050600160149054906101000a900460ff16600181111561053657610535610e55565b5b6040517f4f9c564300000000000000000000000000000000000000000000000000000000815260040161056b9392919061110e565b60405180910390fd5b60018060146101000a81548160ff0219169083600181111561059957610598610e55565b5b021790555060007f000000000000000000000000000000000000000000000000000000000000000073ffffffffffffffffffffffffffffffffffffffff16635d3b1d307f00000000000000000000000000000000000000000000000000000000000000007f000000000000000000000000000000000000000000000000000000000000000060037f000000000000000000000000000000000000000000000000000000000000000060016040518663ffffffff1660e01b81526004016106639594939291906111bd565b602060405180830381600087803b15801561067d57600080fd5b505af1158015610691573d6000803e3d6000fd5b505050506040513d601f19601f820116820180604052508101906106b59190611225565b9050807fcd6e45c8998311cab7e9d4385596cac867e20a0587194b954fa3a731c93ce78b60405160405180910390a250505050565b6000600160009054906101000a900473ffffffffffffffffffffffffffffffffffffffff16905090565b6000600163ffffffff16905090565b6000600160149054906101000a900460ff16905090565b600060606000600160149054906101000a900460ff16600181111561076257610761610e55565b5b6000600181111561077657610775610e55565b5b14905060006003546002544261078c9190611281565b119050600080600080549050119050600080471190508380156107ac5750825b80156107b55750815b80156107be5750805b955050505050915091565b60007f0000000000000000000000000000000000000000000000000000000000000000905090565b6000600361ffff16905090565b6000808281548110610813576108126112b5565b5b9060005260206000200160009054906101000a900473ffffffffffffffffffffffffffffffffffffffff169050919050565b6000600254905090565b600080805490508260008151811061086a576108696112b5565b5b602002602001015161087c9190611313565b90506000808281548110610893576108926112b5565b5b9060005260206000200160009054906101000a900473ffffffffffffffffffffffffffffffffffffffff16905080600160006101000a81548173ffffffffffffffffffffffffffffffffffffffff021916908373ffffffffffffffffffffffffffffffffffffffff1602179055506000600160146101000a81548160ff0219169083600181111561092757610926610e55565b5b0217905550600067ffffffffffffffff81111561094757610946610b88565b5b6040519080825280602002602001820160405280156109755781602001602082028036833780820191505090505b506000908051906020019061098b929190610a81565b50600060028190555060008173ffffffffffffffffffffffffffffffffffffffff16476040516109ba90611375565b60006040518083038185875af1925050503d80600081146109f7576040519150601f19603f3d011682016040523d82523d6000602084013e6109fc565b606091505b5050905080610a37576040517fba31c4f300000000000000000000000000000000000000000000000000000000815260040160405180910390fd5b8173ffffffffffffffffffffffffffffffffffffffff167f5b690ec4a06fe979403046eaeea5b3ce38524683c3001f662c8b5a829632f7df60405160405180910390a25050505050565b828054828255906000526020600020908101928215610afa579160200282015b82811115610af95782518260006101000a81548173ffffffffffffffffffffffffffffffffffffffff021916908373ffffffffffffffffffffffffffffffffffffffff16021790555091602001919060010190610aa1565b5b509050610b079190610b0b565b5090565b5b80821115610b24576000816000905550600101610b0c565b5090565b6000604051905090565b600080fd5b600080fd5b6000819050919050565b610b4f81610b3c565b8114610b5a57600080fd5b50565b600081359050610b6c81610b46565b92915050565b600080fd5b6000601f19601f8301169050919050565b7f4e487b7100000000000000000000000000000000000000000000000000000000600052604160045260246000fd5b610bc082610b77565b810181811067ffffffffffffffff82111715610bdf57610bde610b88565b5b80604052505050565b6000610bf2610b28565b9050610bfe8282610bb7565b919050565b600067ffffffffffffffff821115610c1e57610c1d610b88565b5b602082029050602081019050919050565b600080fd5b6000610c47610c4284610c03565b610be8565b90508083825260208201905060208402830185811115610c6a57610c69610c2f565b5b835b81811015610c935780610c7f8882610b5d565b845260208401935050602081019050610c6c565b5050509392505050565b600082601f830112610cb257610cb1610b72565b5b8135610cc2848260208601610c34565b91505092915050565b60008060408385031215610ce257610ce1610b32565b5b6000610cf085828601610b5d565b925050602083013567ffffffffffffffff811115610d1157610d10610b37565b5b610d1d85828601610c9d565b9150509250929050565b610d3081610b3c565b82525050565b6000602082019050610d4b6000830184610d27565b92915050565b600080fd5b60008083601f840112610d6c57610d6b610b72565b5b8235905067ffffffffffffffff811115610d8957610d88610d51565b5b602083019150836001820283011115610da557610da4610c2f565b5b9250929050565b60008060208385031215610dc357610dc2610b32565b5b600083013567ffffffffffffffff811115610de157610de0610b37565b5b610ded85828601610d56565b92509250509250929050565b600073ffffffffffffffffffffffffffffffffffffffff82169050919050565b6000610e2482610df9565b9050919050565b610e3481610e19565b82525050565b6000602082019050610e4f6000830184610e2b565b92915050565b7f4e487b7100000000000000000000000000000000000000000000000000000000600052602160045260246000fd5b60028110610e9557610e94610e55565b5b50565b6000819050610ea682610e84565b919050565b6000610eb682610e98565b9050919050565b610ec681610eab565b82525050565b6000602082019050610ee16000830184610ebd565b92915050565b600080fd5b600067ffffffffffffffff821115610f0757610f06610b88565b5b610f1082610b77565b9050602081019050919050565b82818337600083830152505050565b6000610f3f610f3a84610eec565b610be8565b905082815260208101848484011115610f5b57610f5a610ee7565b5b610f66848285610f1d565b509392505050565b600082601f830112610f8357610f82610b72565b5b8135610f93848260208601610f2c565b91505092915050565b600060208284031215610fb257610fb1610b32565b5b600082013567ffffffffffffffff811115610fd057610fcf610b37565b5b610fdc84828501610f6e565b91505092915050565b60008115159050919050565b610ffa81610fe5565b82525050565b600081519050919050565b600082825260208201905092915050565b60005b8381101561103a57808201518184015260208101905061101f565b83811115611049576000848401525b50505050565b600061105a82611000565b611064818561100b565b935061107481856020860161101c565b61107d81610b77565b840191505092915050565b600060408201905061109d6000830185610ff1565b81810360208301526110af818461104f565b90509392505050565b6000602082840312156110ce576110cd610b32565b5b60006110dc84828501610b5d565b91505092915050565b60006040820190506110fa6000830185610e2b565b6111076020830184610e2b565b9392505050565b60006060820190506111236000830186610d27565b6111306020830185610d27565b61113d6040830184610d27565b949350505050565b6000819050919050565b61115881611145565b82525050565b600067ffffffffffffffff82169050919050565b61117b8161115e565b82525050565b600061ffff82169050919050565b61119881611181565b82525050565b600063ffffffff82169050919050565b6111b78161119e565b82525050565b600060a0820190506111d2600083018861114f565b6111df6020830187611172565b6111ec604083018661118f565b6111f960608301856111ae565b61120660808301846111ae565b9695505050505050565b60008151905061121f81610b46565b92915050565b60006020828403121561123b5761123a610b32565b5b600061124984828501611210565b91505092915050565b7f4e487b7100000000000000000000000000000000000000000000000000000000600052601160045260246000fd5b600061128c82610b3c565b915061129783610b3c565b9250828210156112aa576112a9611252565b5b828203905092915050565b7f4e487b7100000000000000000000000000000000000000000000000000000000600052603260045260246000fd5b7f4e487b7100000000000000000000000000000000000000000000000000000000600052601260045260246000fd5b600061131e82610b3c565b915061132983610b3c565b925082611339576113386112e4565b5b828206905092915050565b600081905092915050565b50565b600061135f600083611344565b915061136a8261134f565b600082019050919050565b600061138082611352565b915081905091905056fea26469706673582212206a1476e026a2e2571c65ae8de5bb177b1d101f2c13cf2b7b59ad72e4902debc264736f6c63430008090033",
  "linkReferences": {},
  "deployedLinkReferences": {}
}