{
  "_format": "hh-sol-artifact-1",
  "contractName": "Raffle",
  "sourceName": "contracts/Raffle.sol",
  "abi": [
    {
      "inputs": [
        {
          "internalType": "address",
          "name": "vrfCoordinatorV2",
          "type": "address"
        },
        {
          "internalType": "uint256",
          "name": "enterenceFee",
          "type": "uint256"
        },
        {
          "internalType": "bytes32",
          "name": "gaslane",
          "type": "bytes32"
        },
        {
          "internalType": "uint64",
          "name": "subscriptionId",
          "type": "uint64"
        },
        {
          "internalType": "uint32",
          "name": "callbackGasLimit",
          "type": "uint32"
        },
        {
          "internalType": "uint256",
          "name": "interval",
          "type": "uint256"
        }
      ],
      "stateMutability": "nonpayable",
      "type": "constructor"
    },
    {
      "inputs": [
        {
          "internalType": "address",
          "name": "have",
          "type": "address"
        },
        {
          "internalType": "address",
          "name": "want",
          "type": "address"
        }
      ],
      "name": "OnlyCoordinatorCanFulfill",
      "type": "error"
    },
    {
      "inputs": [],
      "name": "Raffle_TransferFailed",
      "type": "error"
    },
    {
      "inputs": [],
      "name": "Raffle__NotEnoughtETHEntered",
      "type": "error"
    },
    {
      "inputs": [],
      "name": "Raffle__NotOpen",
      "type": "error"
    },
    {
      "inputs": [
        {
          "internalType": "uint256",
          "name": "currentBalance",
          "type": "uint256"
        },
        {
          "internalType": "uint256",
          "name": "numPlayers",
          "type": "uint256"
        },
        {
          "internalType": "uint256",
          "name": "raffleState",
          "type": "uint256"
        }
      ],
      "name": "Raffle__UpkeepnotNeeded",
      "type": "error"
    },
    {
      "anonymous": false,
      "inputs": [
        {
          "indexed": true,
          "internalType": "address",
          "name": "player",
          "type": "address"
        }
      ],
      "name": "RaffleEnter",
      "type": "event"
    },
    {
      "anonymous": false,
      "inputs": [
        {
          "indexed": true,
          "internalType": "uint256",
          "name": "requestId",
          "type": "uint256"
        }
      ],
      "name": "RequestedRaffleWinner",
      "type": "event"
    },
    {
      "anonymous": false,
      "inputs": [
        {
          "indexed": true,
          "internalType": "address",
          "name": "winner",
          "type": "address"
        }
      ],
      "name": "WinnerPicked",
      "type": "event"
    },
    {
      "inputs": [
        {
          "internalType": "bytes",
          "name": "",
          "type": "bytes"
        }
      ],
      "name": "checkUpkeep",
      "outputs": [
        {
          "internalType": "bool",
          "name": "upkeepNeeded",
          "type": "bool"
        },
        {
          "internalType": "bytes",
          "name": "",
          "type": "bytes"
        }
      ],
      "stateMutability": "nonpayable",
      "type": "function"
    },
    {
      "inputs": [],
      "name": "enterRaffle",
      "outputs": [],
      "stateMutability": "payable",
      "type": "function"
    },
    {
      "inputs": [],
      "name": "getEnterenceFee",
      "outputs": [
        {
          "internalType": "uint256",
          "name": "",
          "type": "uint256"
        }
      ],
      "stateMutability": "view",
      "type": "function"
    },
    {
      "inputs": [],
      "name": "getInterval",
      "outputs": [
        {
          "internalType": "uint256",
          "name": "",
          "type": "uint256"
        }
      ],
      "stateMutability": "view",
      "type": "function"
    },
    {
      "inputs": [],
      "name": "getLatestTimestamp",
      "outputs": [
        {
          "internalType": "uint256",
          "name": "",
          "type": "uint256"
        }
      ],
      "stateMutability": "view",
      "type": "function"
    },
    {
      "inputs": [],
      "name": "getNumWords",
      "outputs": [
        {
          "internalType": "uint256",
          "name": "",
          "type": "uint256"
        }
      ],
      "stateMutability": "pure",
      "type": "function"
    },
    {
      "inputs": [
        {
          "internalType": "uint256",
          "name": "index",
          "type": "uint256"
        }
      ],
      "name": "getPlayer",
      "outputs": [
        {
          "internalType": "address",
          "name": "",
          "type": "address"
        }
      ],
      "stateMutability": "view",
      "type": "function"
    },
    {
      "inputs": [],
      "name": "getRafflestate",
      "outputs": [
        {
          "internalType": "enum Raffle.RaffleState",
          "name": "",
          "type": "uint8"
        }
      ],
      "stateMutability": "view",
      "type": "function"
    },
    {
      "inputs": [],
      "name": "getRecentWinner",
      "outputs": [
        {
          "internalType": "address",
          "name": "",
          "type": "address"
        }
      ],
      "stateMutability": "view",
      "type": "function"
    },
    {
      "inputs": [],
      "name": "getRequestedConfirmations",
      "outputs": [
        {
          "internalType": "uint256",
          "name": "",
          "type": "uint256"
        }
      ],
      "stateMutability": "pure",
      "type": "function"
    },
    {
      "inputs": [],
      "name": "getnumbersOfPlayers",
      "outputs": [
        {
          "internalType": "uint256",
          "name": "",
          "type": "uint256"
        }
      ],
      "stateMutability": "view",
      "type": "function"
    },
    {
      "inputs": [
        {
          "internalType": "bytes",
          "name": "",
          "type": "bytes"
        }
      ],
      "name": "performUpkeep",
      "outputs": [],
      "stateMutability": "nonpayable",
      "type": "function"
    },
    {
      "inputs": [
        {
          "internalType": "uint256",
          "name": "requestId",
          "type": "uint256"
        },
        {
          "internalType": "uint256[]",
          "name": "randomWords",
          "type": "uint256[]"
        }
      ],
      "name": "rawFulfillRandomWords",
      "outputs": [],
      "stateMutability": "nonpayable",
      "type": "function"
    }
  ],
  "bytecode": "0x6101406040523480156200001257600080fd5b50604051620017cb380380620017cb833981810160405281019062000038919062000292565b858073ffffffffffffffffffffffffffffffffffffffff1660808173ffffffffffffffffffffffffffffffffffffffff1681525050508460a081815250508573ffffffffffffffffffffffffffffffffffffffff166101208173ffffffffffffffffffffffffffffffffffffffff16815250508360c081815250508267ffffffffffffffff1660e08167ffffffffffffffff16815250508163ffffffff166101008163ffffffff16815250506000600160146101000a81548160ff021916908360018111156200010d576200010c6200032e565b5b021790555042600281905550806003819055505050505050506200035d565b600080fd5b600073ffffffffffffffffffffffffffffffffffffffff82169050919050565b60006200015e8262000131565b9050919050565b620001708162000151565b81146200017c57600080fd5b50565b600081519050620001908162000165565b92915050565b6000819050919050565b620001ab8162000196565b8114620001b757600080fd5b50565b600081519050620001cb81620001a0565b92915050565b6000819050919050565b620001e681620001d1565b8114620001f257600080fd5b50565b6000815190506200020681620001db565b92915050565b600067ffffffffffffffff82169050919050565b6200022b816200020c565b81146200023757600080fd5b50565b6000815190506200024b8162000220565b92915050565b600063ffffffff82169050919050565b6200026c8162000251565b81146200027857600080fd5b50565b6000815190506200028c8162000261565b92915050565b60008060008060008060c08789031215620002b257620002b16200012c565b5b6000620002c289828a016200017f565b9650506020620002d589828a01620001ba565b9550506040620002e889828a01620001f5565b9450506060620002fb89828a016200023a565b93505060806200030e89828a016200027b565b92505060a06200032189828a01620001ba565b9150509295509295509295565b7f4e487b7100000000000000000000000000000000000000000000000000000000600052602160045260246000fd5b60805160a05160c05160e0516101005161012051611410620003bb60003960006105e80152600061066801526000610645015260006106240152600081816103b8015261081d0152600081816102f8015261034c01526114106000f3fe6080604052600436106100c25760003560e01c8063572e00fd1161007f578063b675400d11610059578063b675400d14610238578063d70a6cd614610263578063e55ae4e81461028e578063f43b52cb146102cb576100c2565b8063572e00fd146101a45780636e04ff0d146101cf57806391ad27b41461020d576100c2565b80631fe543e3146100c75780632cfcc539146100f057806345748293146100fa5780634585e33b14610125578063473f1ddc1461014e57806353a2c19a14610179575b600080fd5b3480156100d357600080fd5b506100ee60048036038101906100e99190610d1b565b6102f6565b005b6100f86103b6565b005b34801561010657600080fd5b5061010f610525565b60405161011c9190610d86565b60405180910390f35b34801561013157600080fd5b5061014c60048036038101906101479190610dfc565b610531565b005b34801561015a57600080fd5b50610163610730565b6040516101709190610e8a565b60405180910390f35b34801561018557600080fd5b5061018e61075a565b60405161019b9190610d86565b60405180910390f35b3480156101b057600080fd5b506101b9610769565b6040516101c69190610f1c565b60405180910390f35b3480156101db57600080fd5b506101f660048036038101906101f19190610fec565b610780565b6040516102049291906110d8565b60405180910390f35b34801561021957600080fd5b5061022261080f565b60405161022f9190610d86565b60405180910390f35b34801561024457600080fd5b5061024d610819565b60405161025a9190610d86565b60405180910390f35b34801561026f57600080fd5b50610278610841565b6040516102859190610d86565b60405180910390f35b34801561029a57600080fd5b506102b560048036038101906102b09190611108565b61084e565b6040516102c29190610e8a565b60405180910390f35b3480156102d757600080fd5b506102e0610895565b6040516102ed9190610d86565b60405180910390f35b7f000000000000000000000000000000000000000000000000000000000000000073ffffffffffffffffffffffffffffffffffffffff163373ffffffffffffffffffffffffffffffffffffffff16146103a857337f00000000000000000000000000000000000000000000000000000000000000006040517f1cf993f400000000000000000000000000000000000000000000000000000000815260040161039f929190611135565b60405180910390fd5b6103b2828261089f565b5050565b7f0000000000000000000000000000000000000000000000000000000000000000341015610410576040517ff9198edd00000000000000000000000000000000000000000000000000000000815260040160405180910390fd5b6000600181111561042457610423610ea5565b5b600160149054906101000a900460ff16600181111561044657610445610ea5565b5b1461047d576040517f1425571c00000000000000000000000000000000000000000000000000000000815260040160405180910390fd5b6000339080600181540180825580915050600190039060005260206000200160009091909190916101000a81548173ffffffffffffffffffffffffffffffffffffffff021916908373ffffffffffffffffffffffffffffffffffffffff1602179055503373ffffffffffffffffffffffffffffffffffffffff167f0805e1d667bddb8a95f0f09880cf94f403fb596ce79928d9f29b74203ba284d460405160405180910390a2565b60008080549050905090565b600061054b60405180602001604052806000815250610780565b509050806105ba5747600080549050600160149054906101000a900460ff16600181111561057c5761057b610ea5565b5b6040517f4f9c56430000000000000000000000000000000000000000000000000000000081526004016105b19392919061115e565b60405180910390fd5b60018060146101000a81548160ff021916908360018111156105df576105de610ea5565b5b021790555060007f000000000000000000000000000000000000000000000000000000000000000073ffffffffffffffffffffffffffffffffffffffff16635d3b1d307f00000000000000000000000000000000000000000000000000000000000000007f000000000000000000000000000000000000000000000000000000000000000060037f000000000000000000000000000000000000000000000000000000000000000060016040518663ffffffff1660e01b81526004016106a995949392919061120d565b602060405180830381600087803b1580156106c357600080fd5b505af11580156106d7573d6000803e3d6000fd5b505050506040513d601f19601f820116820180604052508101906106fb9190611275565b9050807fcd6e45c8998311cab7e9d4385596cac867e20a0587194b954fa3a731c93ce78b60405160405180910390a250505050565b6000600160009054906101000a900473ffffffffffffffffffffffffffffffffffffffff16905090565b6000600163ffffffff16905090565b6000600160149054906101000a900460ff16905090565b600060606000600160149054906101000a900460ff1660018111156107a8576107a7610ea5565b5b600060018111156107bc576107bb610ea5565b5b1490506000600354600254426107d291906112d1565b119050600080600080549050119050600080471190508380156107f25750825b80156107fb5750815b80156108045750805b955050505050915091565b6000600354905090565b60007f0000000000000000000000000000000000000000000000000000000000000000905090565b6000600361ffff16905090565b600080828154811061086357610862611305565b5b9060005260206000200160009054906101000a900473ffffffffffffffffffffffffffffffffffffffff169050919050565b6000600254905090565b60008080549050826000815181106108ba576108b9611305565b5b60200260200101516108cc9190611363565b905060008082815481106108e3576108e2611305565b5b9060005260206000200160009054906101000a900473ffffffffffffffffffffffffffffffffffffffff16905080600160006101000a81548173ffffffffffffffffffffffffffffffffffffffff021916908373ffffffffffffffffffffffffffffffffffffffff1602179055506000600160146101000a81548160ff0219169083600181111561097757610976610ea5565b5b0217905550600067ffffffffffffffff81111561099757610996610bd8565b5b6040519080825280602002602001820160405280156109c55781602001602082028036833780820191505090505b50600090805190602001906109db929190610ad1565b50600060028190555060008173ffffffffffffffffffffffffffffffffffffffff1647604051610a0a906113c5565b60006040518083038185875af1925050503d8060008114610a47576040519150601f19603f3d011682016040523d82523d6000602084013e610a4c565b606091505b5050905080610a87576040517fba31c4f300000000000000000000000000000000000000000000000000000000815260040160405180910390fd5b8173ffffffffffffffffffffffffffffffffffffffff167f5b690ec4a06fe979403046eaeea5b3ce38524683c3001f662c8b5a829632f7df60405160405180910390a25050505050565b828054828255906000526020600020908101928215610b4a579160200282015b82811115610b495782518260006101000a81548173ffffffffffffffffffffffffffffffffffffffff021916908373ffffffffffffffffffffffffffffffffffffffff16021790555091602001919060010190610af1565b5b509050610b579190610b5b565b5090565b5b80821115610b74576000816000905550600101610b5c565b5090565b6000604051905090565b600080fd5b600080fd5b6000819050919050565b610b9f81610b8c565b8114610baa57600080fd5b50565b600081359050610bbc81610b96565b92915050565b600080fd5b6000601f19601f8301169050919050565b7f4e487b7100000000000000000000000000000000000000000000000000000000600052604160045260246000fd5b610c1082610bc7565b810181811067ffffffffffffffff82111715610c2f57610c2e610bd8565b5b80604052505050565b6000610c42610b78565b9050610c4e8282610c07565b919050565b600067ffffffffffffffff821115610c6e57610c6d610bd8565b5b602082029050602081019050919050565b600080fd5b6000610c97610c9284610c53565b610c38565b90508083825260208201905060208402830185811115610cba57610cb9610c7f565b5b835b81811015610ce35780610ccf8882610bad565b845260208401935050602081019050610cbc565b5050509392505050565b600082601f830112610d0257610d01610bc2565b5b8135610d12848260208601610c84565b91505092915050565b60008060408385031215610d3257610d31610b82565b5b6000610d4085828601610bad565b925050602083013567ffffffffffffffff811115610d6157610d60610b87565b5b610d6d85828601610ced565b9150509250929050565b610d8081610b8c565b82525050565b6000602082019050610d9b6000830184610d77565b92915050565b600080fd5b60008083601f840112610dbc57610dbb610bc2565b5b8235905067ffffffffffffffff811115610dd957610dd8610da1565b5b602083019150836001820283011115610df557610df4610c7f565b5b9250929050565b60008060208385031215610e1357610e12610b82565b5b600083013567ffffffffffffffff811115610e3157610e30610b87565b5b610e3d85828601610da6565b92509250509250929050565b600073ffffffffffffffffffffffffffffffffffffffff82169050919050565b6000610e7482610e49565b9050919050565b610e8481610e69565b82525050565b6000602082019050610e9f6000830184610e7b565b92915050565b7f4e487b7100000000000000000000000000000000000000000000000000000000600052602160045260246000fd5b60028110610ee557610ee4610ea5565b5b50565b6000819050610ef682610ed4565b919050565b6000610f0682610ee8565b9050919050565b610f1681610efb565b82525050565b6000602082019050610f316000830184610f0d565b92915050565b600080fd5b600067ffffffffffffffff821115610f5757610f56610bd8565b5b610f6082610bc7565b9050602081019050919050565b82818337600083830152505050565b6000610f8f610f8a84610f3c565b610c38565b905082815260208101848484011115610fab57610faa610f37565b5b610fb6848285610f6d565b509392505050565b600082601f830112610fd357610fd2610bc2565b5b8135610fe3848260208601610f7c565b91505092915050565b60006020828403121561100257611001610b82565b5b600082013567ffffffffffffffff8111156110205761101f610b87565b5b61102c84828501610fbe565b91505092915050565b60008115159050919050565b61104a81611035565b82525050565b600081519050919050565b600082825260208201905092915050565b60005b8381101561108a57808201518184015260208101905061106f565b83811115611099576000848401525b50505050565b60006110aa82611050565b6110b4818561105b565b93506110c481856020860161106c565b6110cd81610bc7565b840191505092915050565b60006040820190506110ed6000830185611041565b81810360208301526110ff818461109f565b90509392505050565b60006020828403121561111e5761111d610b82565b5b600061112c84828501610bad565b91505092915050565b600060408201905061114a6000830185610e7b565b6111576020830184610e7b565b9392505050565b60006060820190506111736000830186610d77565b6111806020830185610d77565b61118d6040830184610d77565b949350505050565b6000819050919050565b6111a881611195565b82525050565b600067ffffffffffffffff82169050919050565b6111cb816111ae565b82525050565b600061ffff82169050919050565b6111e8816111d1565b82525050565b600063ffffffff82169050919050565b611207816111ee565b82525050565b600060a082019050611222600083018861119f565b61122f60208301876111c2565b61123c60408301866111df565b61124960608301856111fe565b61125660808301846111fe565b9695505050505050565b60008151905061126f81610b96565b92915050565b60006020828403121561128b5761128a610b82565b5b600061129984828501611260565b91505092915050565b7f4e487b7100000000000000000000000000000000000000000000000000000000600052601160045260246000fd5b60006112dc82610b8c565b91506112e783610b8c565b9250828210156112fa576112f96112a2565b5b828203905092915050565b7f4e487b7100000000000000000000000000000000000000000000000000000000600052603260045260246000fd5b7f4e487b7100000000000000000000000000000000000000000000000000000000600052601260045260246000fd5b600061136e82610b8c565b915061137983610b8c565b92508261138957611388611334565b5b828206905092915050565b600081905092915050565b50565b60006113af600083611394565b91506113ba8261139f565b600082019050919050565b60006113d0826113a2565b915081905091905056fea2646970667358221220d440d067e7e3a98692537a368e6fa114e0e8139e50ac726a67e94ac778a255d664736f6c63430008090033",
  "linkReferences": {},
  "deployedLinkReferences": {}
}